:020000040800F2
:10000000200A0020DD050008C1020008C302000824
:10001000CF020008DB020008E70200080000000031
:10002000000000000000000000000000F3020008D3
:10003000F502000800000000F3050008F7020008C0
:10004000F7050008F7050008F7050008FB0200089F
:10005000F7050008F7050008F9020008F705000891
:10006000F7050008F7050008F7050008F705000880
:10007000F7050008F7050008F7050008F705000870
:10008000F7050008F7050008F7050008F705000860
:10009000F7050008F7050008F7050008F705000850
:1000A000F7050008F7050008F7050008F705000840
:1000B000F7050008F7050008F7050008F705000830
:1000C000F7050008F7050008F7050008F705000820
:1000D000F70500081B150008EB3A0008F7050008B3
:1000E000F7050008F7050008F7050008F705000800
:1000F000F7050008F7050008F7050008F7050008F0
:10010000F7050008F7050008F7050008F7050008DF
:10011000F7050008F7050008F7050008F7050008CF
:10012000F7050008F7050008F7050008F7050008BF
:1001300000F002F800F0B4F80AA090E8000C824445
:100140008344AAF10107DA4501D100F0A9F8AFF222
:10015000090EBAE80F0013F0010F18BFFB1A43F0A5
:10016000010318473C6600005C6600000A444FF03B
:10017000000C10F8013B13F0070408BF10F8014B06
:100180001D1108BF10F8015B641E05D010F8016B4B
:10019000641E01F8016BF9D113F0080F1EBF10F8AF
:1001A000014BAD1C0C1B09D16D1E58BF01F801CBD2
:1001B000FAD505E014F8016B01F8016B6D1EF9D555
:1001C0009142D6D37047000000230024002500266A
:1001D000103A28BF78C1FBD8520728BF30C148BFAA
:1001E0000B6070476E2904F06E82702903F05B8704
:1001F000662905F00B86652905F00886672905F054
:100200000586612905F0048603681B0A28BF41F0B2
:100210008001692903F0CC86642903F0C986752919
:1002200003F0C6866F2904F05D83782903F02787E1
:10023000E92904F0F782E42904F0F482F52904F0B6
:10024000F182EF2904F05A83F82903F02687036826
:10025000DB0928BF41F08001632904F0788273290B
:1002600004F07D82E32904F0AD87F32904F0B2871E
:10027000002070471FB59DE8030004F083F905F0E6
:1002800067F804000020002105F094FD401C606028
:100290000020002105F0A4FDE0601FBD10B510BDD9
:1002A00005F031F81146FFF7E5FF01F08DFC05F090
:1002B0000FF903B4FFF7F2FF03BC05F03DF90000AE
:1002C00070470EA11C4801F004F900BFFEE71BA116
:1002D000194801F0FEF800BFFEE727A1164801F01B
:1002E000F8F800BFFEE733A1134801F0F2F800BFB1
:1002F000FEE7704770477047704770470D0A2A2A1B
:100300002A2A2A2A2A2A2A2A2A2A2A2A2A2A2A2A4D
:100310002A486172644661756C745F48616E646CF2
:1003200065722A2A2A2A2A2A2A2A2A2A2A2A2A2AAA
:100330002A2A2A2A2A0D0A00003801400D0A2A2AF0
:100340002A2A2A2A2A2A2A2A2A2A2A2A2A2A2A2A0D
:100350002A4D656D4D616E6167655F48616E646CC5
:1003600065722A2A2A2A2A2A2A2A2A2A2A2A2A2A6A
:100370002A2A2A2A2A0D0A000D0A2A2A2A2A2A2A81
:100380002A2A2A2A2A2A2A2A2A2A2A2A2A42757321
:100390004661756C745F48616E646C65722A2A2AC6
:1003A0002A2A2A2A2A2A2A2A2A2A2A2A2A2A2A2AAD
:1003B0000D0A00000D0A2A2A2A2A2A2A2A2A2A2A6B
:1003C0002A2A2A2A2A2A2A2A2A5573616765466117
:1003D000756C745F48616E646C65722A2A2A2A2AD9
:1003E0002A2A2A2A2A2A2A2A2A2A2A2A2A2A0D0AAA
:1003F000000000000CB50020019000906C480068DF
:1004000040F480306A49086000BF6948006800F421
:10041000003000900198401C0190009818B9019894
:10042000B0F5A06FF1D16248006800F4003010B15F
:100430000120009001E0002000900098012843D1A5
:100440005C48006840F010005A490860084600689F
:1004500020F0030008600846006840F002000860D1
:10046000534840685249486008464068486008461A
:10047000406840F4806048600846406820F47C1082
:1004800048600846406840F48810486008460068A4
:1004900040F08070086000BF4548006800F00070C0
:1004A0000028F9D04248406820F0030040494860E5
:1004B0000846406840F00200486000BF3C48406881
:1004C00000F00C000828F9D10CBD10B5FFF792FF21
:1004D00010BD10B53648006840F00100344908608E
:1004E0000846406834490840314948600846006879
:1004F000324908402E4908600846006820F48020F0
:1005000008600846406820F4FE0048604FF41F0071
:100510008860FFF7DAFF4FF000602949086010BDDE
:1005200010B5002100200022214B5B6803F00C0174
:1005300021B1042906D0082928D107E0214B224CFB
:10054000236027E0214B204C236023E0184B5B689D
:1005500003F47010164B5B6803F48032022303EB44
:10056000904022B91A4B4343174C23600DE0104BC7
:100570005B6803F4003323B1164B4343124C2360F2
:1005800003E0124B4343104C236003E00D4B0E4C31
:10059000236000BF00BF064B5B68C3F303130E4C20
:1005A000E15C094B1B68CB40074C236010BD000089
:1005B00000100240002002400000FFF8FFFFF6FE9E
:1005C00008ED00E000127A0000000020001BB700D8
:1005D00000093D00808D5B00040000200948804731
:1005E00009480047FEE7FEE7FEE7FEE7FEE7FEE715
:1005F000FEE7FEE7FEE7FEE704480549054A064B2D
:1006000070470000D30400083101000820020020D8
:10061000200A002020060020200600203149014346
:10062000314A1160704770B5002100230F22C47851
:1006300004B32D4C246804F4E064C4F5E064210A9A
:10064000C1F10403CA40447804FA03F184781440E9
:1006500021430901254C0678A155047804F01F05B3
:100660000124AC4005786D11AD0005F1E025C5F819
:10067000004109E0047804F01F050124AC401C4D42
:100680000678761145F8264070BD1A4A0A400243A2
:10069000154B1B1F1A60704739B1134A121D12689F
:1006A0000243114B1B1D1A6006E00F4A121D12680F
:1006B00082430D4B1B1D1A607047042808D14FF070
:1006C000E021096941F004014FF0E022116107E0E7
:1006D0004FF0E021096921F004014FF0E02211619F
:1006E000704700000000FA050CED00E000E400E0B7
:1006F00080E100E080FFFF1F10B50446CC48844233
:1007000008D10121042000F02DFB0021042000F07D
:1007100029FB46E0C748844208D10121082000F0A7
:1007200021FB0021082000F01DFB3AE0C248844272
:1007300008D10121102000F015FB0021102000F04D
:1007400011FB2EE0BD48844208D10121202000F099
:1007500009FB0021202000F005FB22E0B84884427C
:1007600008D10121402000F0FDFA0021402000F0D6
:10077000F9FA16E0B348844208D10121802000F044
:10078000F1FA0021802000F0EDFA0AE0AE48844240
:1007900007D10121801500F0E5FA0021A01500F035
:1007A000E1FA10BD10B50121084600F0DBFA002186
:1007B000012000F0D7FA10BD2DE9F04102460025D6
:1007C0000026002000230024002791F803C00CF02D
:1007D0000F0591F803C00CF0100CBCF1000F03D012
:1007E00091F802C04CEA050591F800C0BCF1000F79
:1007F00031D0146800202BE04FF0010C0CFA00F30C
:10080000B1F800C00CEA03069E4220D183004FF0ED
:100810000F0C0CFA03F7BC4305FA03FC4CEA040482
:1008200091F803C0BCF1280F06D14FF0010C0CFA6F
:1008300000FCC2F814C00AE091F803C0BCF1480FF4
:1008400005D14FF0010C0CFA00FCC2F810C0401C9E
:100850000828D1D31460B1F800C0BCF1FF0F34DD1B
:10086000546800202EE000F1080C4FF0010808FA4F
:100870000CF3B1F800C00CEA03069E4221D18300BC
:100880004FF00F0C0CFA03F7BC4305FA03FC4CEADB
:10089000040491F803C0BCF1280F05D100F1080C45
:1008A00008FA0CF8C2F8148091F803C0BCF1480FA4
:1008B00007D100F1080C4FF0010808FA0CF8C2F853
:1008C0001080401C0828CED35460BDE8F0814FF65C
:1008D000FF710180022181700421C17070470246BE
:1008E000002093680B400BB1012000E0002070470E
:1008F0000146886880B2704702460020D3680B40EA
:100900000BB1012000E0002070470146C86880B2AA
:10091000704701617047416170470AB1016100E0B1
:1009200041617047C16070474FF480320A43826171
:100930008161826182698269704702460020434B6F
:1009400018684FF68073184040EA021008433F4B86
:10095000186070473E49C8617047F0B50A460023E9
:1009600000240021002500F00046B6F1004F02D11E
:10097000364EF16901E0354E7168C0F3034583B22C
:1009800000F44016B6F5401F08D121F070612F4EDB
:10099000766826F070662D4F7E6012E000F48016B7
:1009A000B6F5801F06D1032606FA05F4A14341F0EF
:1009B000706106E0460D360103FA06F6B14341F0D8
:1009C000706122B1460D360103FA06F6314300F09C
:1009D0000046B6F1004F02D11C4EF16101E01B4E02
:1009E0007160F0BD30B500228B071C0F0F2303FA96
:1009F00004F2164B08338C1053F824309343134CF5
:100A000008348D1044F8253023468C1053F82430D8
:100A10008C07240F00FA04F423430C4C08348D1087
:100A200044F8253030BD0A49DC31086070470000C9
:100A300000080140000C014000100140001401407A
:100A400000180140001C014000200140000001404E
:100A500000002042DF48006840F00100DD490860E6
:100A600008464068DC490840DA49486008460068A2
:100A7000DA490840D74908600846006820F4802019
:100A800008600846406820F4FE0048604FF41F00EC
:100A900088607047CF49096821F48031CD4A1160E0
:100AA0001146096821F480211160B0F5803F03D020
:100AB000B0F5802F0ED106E0C649096841F48031B7
:100AC000C44A116007E0C349096841F4A021C14A42
:100AD000116000E000BF00BF704710B50146002262
:100AE000002300204A11012A02D1BA4C236806E0F3
:100AF000022A02D1B74C236A01E0B64C636A01F0C6
:100B00001F02012494401C400CB1012000E0002091
:100B100010BD38B5002000900024002500BF312012
:100B2000FFF7DBFF05460098401C00900098B0F5E9
:100B3000A06F01D0002DF2D03120FFF7CEFF08B119
:100B4000012400E00024204638BD01460020A14ACF
:100B5000106820F0F80040EAC10010607047A0491A
:100B600008607047024600209A4B586820F47C10B9
:100B700042EA01031843974B58607047984908664A
:100B8000704701460020934A506820F00300084354
:100B9000506070478F48406800F00C007047014675
:100BA00000208C4A506820F0F000084350607047E5
:100BB00001460020874A506820F4E06008435060F6
:100BC000704701460020834A506820F4605040EA94
:100BD000C1005060704729B17E4A527A02437D4B72
:100BE0005A7204E07B4A527A82437A4B5A727047B7
:100BF0007B49D8310860704701460020754A50682B
:100C000020F440400843506070470021714A203270
:100C10001170704A82F82010012802D004280AD1ED
:100C200004E001216B4A2032117005E00521694A78
:100C30002032117000E000BF00BF704769490860B2
:100C400070476449096A0143624A11627047654905
:100C500044390860704730B5002100220024002389
:100C60005C4D6D6805F00C0121B1042905D00829FF
:100C700023D105E05C4D056022E05C4D05601FE07E
:100C8000544D6D6805F47012524D6D6805F4803452
:100C9000022505EB92421CB9554D554305600BE00A
:100CA0004C4D6D6805F400351DB1524D554305603E
:100CB00002E04E4D5543056002E04B4D056000BF1C
:100CC00000BF444D6D6805F0F00109094A4D6B5CA9
:100CD0000568DD4045603F4D6D6805F4E061090A37
:100CE000454D6B5C4568DD4085603A4D6D6805F4A7
:100CF0006051C90A404D6B5C4568DD40C560354DAB
:100D00006D6805F44041890B3C4D6B5CC568B5FBD3
:100D1000F3F5056130BD29B12E4A526902432D4BCE
:100D20005A6104E02B4A526982432A4B5A61704748
:100D300029B1284A92690243264B9A6104E0254A68
:100D400092698243234B9A61704729B1214AD26943
:100D50000243204BDA6104E01E4AD26982431D4BF4
:100D6000DA61704729B11B4AD2680243194BDA6035
:100D700004E0184AD2688243164BDA60704729B102
:100D8000144A12690243134B1A6104E0114A1269B2
:100D90008243104B1A61704712494039086070470E
:100DA0000F49C86470470B49C87170470948406AC9
:100DB00040F0807007494862704701460020054AAC
:100DC00092680A400AB1012000E000207047014902
:100DD00088727047001002400000FFF8FFFFF6FE27
:100DE000000042428004424200127A00001BB70019
:100DF00000093D00808D5B001400002024000020CD
:100E000010B50446FB48844209D101218803FFF74D
:100E1000A9FF00214FF48040FFF7A4FF32E0F6481D
:100E2000844209D101214804FFF7A9FF00214FF4B2
:100E30000030FFF7A4FF25E0F048844209D10121EA
:100E40008804FFF79CFF00214FF48020FFF797FFF5
:100E500018E0EB48844209D10121C804FFF78FFF55
:100E600000214FF40020FFF78AFF0BE0E5488442A1
:100E700008D101210805FFF782FF00214FF48010FF
:100E8000FFF77DFF10BD2DE9F04786B005460E4601
:100E90000024A24600BFA1460027B08900B100BFD0
:100EA0002F462C8A4CF6FF700440F08804432C82B5
:100EB000AC894EF6F3100440B0883189084371893B
:100EC00008430443AC81AC8A4FF6FF400440B0892C
:100ED0000443AC8201A8FFF7BEFEC648874202D198
:100EE000DDF810A001E0DDF80CA0A88900F40040B6
:100EF00040B10AEBCA0000EB0A1031684900B0FBB0
:100F0000F1F807E00AEBCA0000EB0A10316889002B
:100F1000B0FBF1F86420B8FBF0F004012009642173
:100F200001FB1089A88900F4004040B1322000EB99
:100F3000C900B0FBF1F000F00700044308E03220E4
:100F400000EB09106421B0FBF1F000F00F00044346
:100F50002C8106B0BDE8F0874FF4165101600021E6
:100F60008180C18001810C214181002181817047F4
:100F700010B502460020108A4FF2FF0318400B887C
:100F80004C8823438C882343CC8823431843108206
:100F900010BD0021018041808180C180704721B156
:100FA000828942F40052828104E082894DF6FF7307
:100FB0001A4082817047F0B50346002400260025C0
:100FC000002040F66A17B94200D100BF1846C1F3AD
:100FD000421401F01F06012707FA06F5012C01D182
:100FE0000C3004E0022C01D1103000E014301AB1B2
:100FF00007682F43076002E00768AF430760F0BD52
:101000001AB1838A0B43838202E0838A8B438382F3
:101010007047028A4FF6F0731A400282028A0A432E
:101020000282704782894FF2FF731A40828182895F
:101030000A438281704721B1828942F00202828193
:1010400004E082894FF6FD731A4082817047028A5C
:101050004FF6DF731A400282028A0A430282704707
:1010600021B1028A42F48042028204E0028A4BF6F5
:10107000FF731A4002827047C1F3080282807047F2
:1010800001468888C0F308007047818941F001015A
:1010900081817047028BD2B20283028B42EA012225
:1010A00002837047028B02F47F420283028B0A4361
:1010B0000283704721B1828A42F02002828204E0DA
:1010C000828A4FF6DF731A408282704721B1828A8A
:1010D00042F01002828204E0828A4FF6EF731A40D7
:1010E0008282704721B1828A42F00802828204E043
:1010F000828A4FF6F7731A408282704721B1828943
:1011000042F40042828103E08289C2F30E028281AE
:10111000704721B1828A42F40062828204E0828AAE
:101120004FF2FF731A4082827047828A4FF6FB7338
:101130001A408282828A0A438282704721B1828A5F
:1011400042F00202828204E0828A4FF6FD731A4066
:101150008282704702460020B1F5007F00D100BFB7
:1011600013880B400BB1012000E00020704701F410
:101170000072B2F5007F00D100BFCA430280704701
:1011800070B50246002400230025002040F66A16B0
:10119000B14200D100BFC1F3421501F01F03012687
:1011A00006FA03F3012D02D19689334006E0022DA1
:1011B00002D1168A334001E0968A33400C12012690
:1011C00006FA04F41688344013B10CB1012000E093
:1011D000002070BD10B50022002340F66A14A14221
:1011E00000D100BF0A1201249440A3B2DC43048062
:1011F00010BD00000038014000440040004800409D
:10120000004C00400050004010B504462246082122
:101210001148FFF782FB1148047010BD08B5012189
:101220000820FFF785FD01210846FFF781FD012118
:101230000B48FFF792FB10208DF803000820ADF853
:10124000000003208DF8020069460348FFF7B4FA56
:101250000020FFF7D9FF08BD000C01402800002046
:10126000000230004FF0E020006920F004004FF051
:10127000E02108610920364908700846007800EB33
:101280004001C1EBC0104FF6FF7101EAC0003149C7
:1012900008807047002120F07F402D4A1278424399
:1012A0004FF0E0235A6100229A6101221A6100BFC7
:1012B0004FF0E022116901F001021AB101F480320D
:1012C000002AF5D000224FF0E0231A619A6170479E
:1012D000002100B9704720F07F401E4A1288424327
:1012E0004FF0E0235A6100229A6101221A6100BF87
:1012F0004FF0E022116901F001021AB101F48032CD
:10130000002AF5D000224FF0E0231A619A6100BF55
:10131000E0E770B50446002600254FF4FA7094FB10
:10132000F0F0C6B24FF4FA7094FBF0F100FB1140FC
:1013300085B205E04FF4FA70FFF7CAFF701EC6B21F
:10134000002EF7D115B12846FFF7C2FF70BD00008F
:101350002A0000202C00002010B586B00446012190
:101360000420FFF7E5FC01218803FFF7E1FC1820CA
:101370008DF817004FF40070ADF8140003208DF8BD
:10138000160005A96B48FFF717FA04208DF817001F
:101390000002ADF8140003208DF8160005A9654879
:1013A000FFF70AFA01940020ADF810000C20ADF808
:1013B0000E000020ADF80C00ADF80A00ADF80800F2
:1013C00001A95D48FFF75FFD01215B48FFF7E7FDDD
:1013D000012240F225515848FFF7EDFD25208DF8F8
:1013E000000001208DF8030000208DF8010002208C
:1013F0008DF802006846FFF716F906B010BD10B56B
:1014000086B0044601210420FFF792FC0121480424
:10141000FFF79BFC18208DF817000420ADF814008E
:1014200003208DF8160005A94248FFF7C5F90420EE
:101430008DF817000820ADF8140003208DF8160071
:1014400005A93C48FFF7B8F901940020ADF8100059
:101450000C20ADF80E000020ADF80C00ADF80A002D
:10146000ADF8080001A93548FFF70DFD012133480B
:10147000FFF795FD012240F225513048FFF79BFD13
:1014800026208DF8000001208DF8030000208DF843
:1014900001008DF802006846FFF7C5F806B010BDE0
:1014A0002DE9F04107460C46154600260DE014F8DC
:1014B000011B3846FFF7E0FD00BF40213846FFF72B
:1014C00049FE0028F9D0701C86B2AE42EFDBBDE8C1
:1014D000F0810FB430B5CBB0054601AC50A80090F8
:1014E0004FF4947101A8009B4F9A02F0E1FC002098
:1014F00000900BE014F8011B2846FFF7BDFD00BF6C
:1015000040212846FFF726FE0028F9D02078002841
:10151000F0D14BB030BC5DF814FB10B540F2255152
:101520000548FFF72DFE18B120210348FFF71FFEE5
:1015300010BD000000080140003801400044004098
:1015400008B501211020FFF7F3FB0120ADF80000E2
:1015500010208DF8030003208DF8020069465548DD
:10156000FFF72AF908BD10B5FFF7EAFF012151483E
:10157000FFF7CFF910BD08B50120ADF800004820F5
:101580008DF8030069464B48FFF716F908BD08B50A
:101590000120ADF8000010208DF8030003208DF825
:1015A000020069464348FFF707F908BD70B50025FA
:1015B000002424E000BF01213E48FFF790F90028F5
:1015C000F9D02820FFF766FE01213A48FFF787F996
:1015D00001280DD100BF01213648FFF780F901280D
:1015E000F9D0C4F1070101208840C0B2054304E0EE
:1015F000C4F10701012088408543601CC4B2082C57
:10160000D8DB284670BD10B5FFF7C1FF012129487E
:10161000FFF781F91220FFF75BFE01212548FFF754
:1016200078F91E20FFF736FEFFF7A5FF01212148BC
:10163000FFF755F900283AD100BF01211D48FFF7F7
:101640004EF90028F9D000BF01211A48FFF747F9E9
:101650000128F9D0FFF7AAFF17490870FFF7A6FF86
:1016600015494870FFF7A2FF13498870FFF79EFFE6
:101670001149C870FFF79AFF0F490871FFF787FFFC
:1016800001210C48FFF745F90B4800780A494978D1
:1016900008440949897808440749C9780844064933
:1016A0000979884201D1012010BD0020FCE700200B
:1016B000FAE70000001001402E00002070B504463B
:1016C0000E4626B10221FE48FFF723F903E002216E
:1016D000FB48FFF720F94FF48051F948FFF71BF959
:1016E000002517E02021F748FFF715F904F08000E6
:1016F00020B18021F348FFF70CF903E08021F14885
:10170000FFF709F92021EF48FFF703F96006040EFF
:10171000681CC5B2082DE5DB4FF48051E848FFF79F
:10172000F8F80221E648FFF7F4F870BD70B50446FA
:101730000D4605F1B001C8B20021FFF7BFFF10212F
:1017400041EA14100021FFF7B9FF04F00F0141F046
:1017500001000021FFF7B2FF70BD10B500218D2000
:10176000FFF7ACFF00211420FFF7A8FF0021AF20F6
:10177000FFF7A4FF10BD10B500218D20FFF79EFFDD
:1017800000211020FFF79AFF0021AE20FFF796FFFF
:1017900010BD70B5002419E004F1B001C8B20021F9
:1017A000FFF78CFF00210846FFF788FF002110207B
:1017B000FFF784FF002505E001210020FFF77EFFF1
:1017C000681CC5B2802DF7DB601CC4B2082CE3DBBB
:1017D00070BD2DE9F04107460E46904600250024D5
:1017E000A8F12000C5B27F2F02DD0027B01CC6B2D1
:1017F00031463846FFF79AFF002408E004EB051154
:10180000B14A505C0121FFF759FF601CC4B2082C9B
:10181000F4DB701CC1B23846FFF788FF002409E0F2
:1018200004EB05110831A84A505C0121FFF746FF7F
:10183000601CC4B2082CF3DBBDE8F08110B5024691
:10184000012000E050430B00A1F10104E1B2F9D105
:1018500010BD2DE9FF5F074691461D460E9E4FF0D5
:10186000000A002433E0281B401EC1B20A20FFF703
:10187000E5FFB9FBF0F00A21B0FBF1F201FB120821
:10188000BAF1000F13D1681EA04210DDB8F1000FAD
:101890000BD1B34606EBDB71491001FB0471C8B2F2
:1018A00020220199FFF795FF0FE04FF0010AB346A0
:1018B00006EBDB71491001FB0471C8B208F130017D
:1018C000CAB20199FFF785FF00BF601CC4B2AC42E9
:1018D000C9DBBDE8FF9F2DE9F04104460F461546E0
:1018E00000260EE0AA5D39462046FFF772FF04F19C
:1018F0000800C4B2782C02DD0024B81CC7B2701CEA
:10190000C6B2A85D0028EDD1BDE8F0812DE9F04117
:1019100080460E461546002731464046FFF706FF33
:1019200000240AE0694A02EB8511085D0121FFF7F6
:10193000C5FE781CC7B2601CC4B2102CF2DB701C50
:10194000C1B24046FFF7F2FE00240CE06900491CDA
:101950005E4A02EB4111085D0121FFF7AFFE781CE2
:10196000C7B2601CC4B2102CF0DBBDE8F0812DE9D9
:10197000F05F06460F4690461C46DDF828A04FF063
:10198000000BE11704EB5171C910A4EBC10131B98F
:101990002046E11704EB5171C1F3C70506E020466C
:1019A000E11704EB5171C910491CCDB23D4615E059
:1019B00029463046FFF7BAFEB1460BE059460BF117
:1019C000010B1AF801000121FFF778FE09F101006F
:1019D00000F0FF09C145F1DB681CC5B2A542E7DB99
:1019E000BDE8F09F08B501210820FFF7A1F9032009
:1019F000ADF8000010208DF8030003208DF80200E0
:101A000069462F48FEF7D8FE03212D48FEF781FFD7
:101A100001210420FFF78CF9A020ADF80000102070
:101A20008DF8030003208DF8020069462548FEF773
:101A3000C3FEA0212348FEF76CFF01212048FEF7DA
:101A400068FF6420FFF726FC01211D48FEF763FFB5
:101A5000C820FFF71FFC01211948FEF75AFF00219B
:101A6000AE20FFF72BFE00210846FFF727FE0021DE
:101A70001020FFF723FE00214020FFF71FFE00216A
:101A80008120FFF71BFE0021CF20FFF717FE00216A
:101A9000A120FFF713FE0021C820FFF70FFE002151
:101AA000A620FFF70BFE0021A820FFF707FE00216C
:101AB0003F20FFF703FE0021D320FFF7FFFD07E0E3
:101AC000000C0140000801403C6000083300002089
:101AD00000210846FFF7F2FD0021D520FFF7EEFDBB
:101AE00000218020FFF7EAFD0021D920FFF7E6FD65
:101AF0000021F120FFF7E2FD0021DA20FFF7DEFDF3
:101B000000211220FFF7DAFD0021DB20FFF7D6FDD0
:101B100000214020FFF7D2FD00212020FFF7CEFD5D
:101B200000210220FFF7CAFD00218D20FFF7C6FD2E
:101B300000211420FFF7C2FD0021A420FFF7BEFD05
:101B40000021A620FFF7BAFD0021AF20FFF7B6FD68
:101B50000021AF20FFF7B2FDFFF71BFE0021084672
:101B6000FFF7E4FD08BD000010B54FF4A060FEF7DC
:101B700055FDFFF777FB4FF41650FFF7EDFB4FF4E1
:101B80001650FFF73CFCFFF7EEFCFFF747FB2BA1DD
:101B90002F48FFF79EFCFFF725FFFFF7FAFD002215
:101BA00011461E20FFF7B2FE012200213020FFF770
:101BB000ADFE022200214220FFF7A8FE03220021F1
:101BC0005420FFF7A3FE10BDB2B000BF0024FFF702
:101BD000CBFF01F0B2FD03E04FF4FA70FFF778FBA2
:101BE00000F09DF80028F7D10120FFF70DFBFA2047
:101BF000FFF76EFB0020FFF707FB1EE0FA2001F065
:101C00000FFDB8B113A11248FFF763FCFA2001F0F1
:101C100049FD04463CB118A10D48FFF75AFC214686
:101C2000684602F080F8684600F091F9C8216846DD
:101C300001F0B0FA0A20FFF74BFBDFE720486172A2
:101C4000647761726520696E6974204F4B0D0A00DC
:101C5000003801402B2B2B2B2B2B2B2B2B2B2B2B07
:101C60002B2B2B2B2B2B2B2B2B2B2B2B2B2B2B2AC5
:101C70002A2A2A2A2A2A00002A2A2A2A2A2A2A2A18
:101C80002A2A2A2A2A2A2A2A2A2A2A2A0D0A000045
:101C900070B50346144600221A7000203CE00A5C2E
:101CA000D51702EB15750A26B6EB251F08DD0A5C71
:101CB000D51702EB15752D11303503F8105007E0DC
:101CC0000A5CD51702EB15752D11373503F8105046
:101CD0000A5CD51702EB15752D11A2EB05150A2D1F
:101CE0000CDA0A5CD51702EB15752D11A2EB051560
:101CF0003035EEB245006D1C5E550BE00A5CD51721
:101D000002EB15752D11A2EB05153735EEB2450026
:101D10006D1C5E55421CD0B2A042C0D370BD30B520
:101D2000EFB014216AA802F0B7FB0124CEA0D1A322
:101D3000D2A2D4A10090DF48FFF7CBFB6AA8002114
:101D400002910391CDE9041000912302C6A20191F2
:101D5000C8A1CAA000F034FC00285AD138AA6C9956
:101D60006A9801F0C9FF4FF6FF726C9802EA4001D1
:101D700038A801F0FBFBFA2001F052FC18B1FA2060
:101D800001F090FC05462946CA48FFF7A2FB294608
:101D900006A801F0C8FF06A8002832D000F0CAFB50
:101DA00002282ED106A800F070FD062823D2DFE815
:101DB00000F003090E13181DBFA1BE48FFF789FBF1
:101DC00000241DE0C1A1BB48FFF783FB18E0C6A1BA
:101DD000B848FFF77EFB13E0CCA1B648FFF779FBCC
:101DE0000EE0D2A1B348FFF774FB09E0D8A1B148D7
:101DF000FFF76FFB04E0E1A1AE48FFF76AFB00BF0D
:101E000000BF6AA800F04EFBC82138A801F0C2F953
:101E100003E0E1A1A748FFF75CFB20466FB030BDAF
:101E200010B5B2B00446C821684602F035FBE3A104
:101E3000204602F049FAC821684602F02DFBE4482A
:101E40000278E4A1684602F04DF86946204602F0A7
:101E50007EFAC821684602F01FFBDD488278E8A1BF
:101E6000684602F03FF86946204602F070FAC82141
:101E7000684602F011FBEDA3EFA2F2A1684602F062
:101E800031F86946204602F062FAFDA1204602F0D0
:101E90005EFA204602F03CFAC0B232B010BD30B556
:101EA000ADF2044D1421FCA802F0F6FA002400253E
:101EB000F4A18048FFF70DFB4FF4FA717FA802F000
:101EC000EBFA4FF4FA7102A802F0E6FA7FA8FFF7E6
:101ED000A7FF04467FA97748FFF7FBFA4FF4FA7093
:101EE000FFF7F6F9002C2FD0FCA801230022214691
:101EF00000905DA000F09DFD10BB08E07FA8415D53
:101F0000FE9A501CFE90FC988154681C05B2A542B4
:101F1000F4DB22467FA902A801F00BFA02AAE1A194
:101F20006448FFF7D6FA4FF4FA70FFF7D1F9E0A151
:101F30006048FE9AFFF7CDFAFCA800F0B3FA03E080
:101F4000DFA15C48FFF7C5FA0DF2044D30BD2DE965
:101F5000F041BEB08046142139A802F09DFA00205D
:101F60003890379004900026002700250024404632
:101F700000F0E0FA0646042E3ED00F2E45D104AB09
:101F800038AA37A9404600F080FD0746002F32D11D
:101F9000BDF810000090D2A14648DDE93723FFF7D5
:101FA00098FA39AADDE9370100F0B5FD002822D101
:101FB000D4A140483B9AFFF78CFADAA13D48FFF7DD
:101FC00088FA05AA3B99399801F096FE3B984200A1
:101FD000CEA13848FFF77DFA4FF6FF723B9802EA30
:101FE000400105A801F0C2FAC82105A801F0D2F805
:101FF00039A800F057FA0BE0404601F008F818B98C
:10200000CEA12C48FFF765FA02E04FF0FF3700BF82
:1020100000BF01F009FA781C10B93EB0BDE8F081AC
:102020007B21389802F022F905469DB1781C88B1D1
:102030006D1C05E015F8012B2046641C01A90A540B
:102040002878302802DB28783928F3DD01A802F04F
:10205000F9F80446C1A1389802F024F910B1012C16
:1020600001D17FE18AE182E13530383836303534CC
:1020700035000000637369626333350031383333F0
:10208000383200004F6E654E65745F4465764C696A
:102090006E6B0D0A50524F49443A2025732C09416A
:1020A0005549463A2025732C0944455649443A255A
:1020B000730D0A0000380140546970733A09C1ACCD
:1020C000BDD3B3C9B9A60D0A000000005741524E56
:1020D0003A09C1ACBDD3CAA7B0DCA3BAD0ADD2E92E
:1020E000B4EDCEF30D0A00005741524E3A09C1AC8F
:1020F000BDD3CAA7B0DCA3BAB7C7B7A8B5C4636CD1
:1021000069656E7469640D0A000000005741524E03
:102110003A09C1ACBDD3CAA7B0DCA3BAB7FECEF1B1
:10212000C6F7CAA7B0DC0D0A000000005741524EA6
:102130003A09C1ACBDD3CAA7B0DCA3BAD3C3BBA70D
:10214000C3FBBBF2C3DCC2EBB4EDCEF30D0A00005F
:102150005741524E3A09C1ACBDD3CAA7B0DCA3BAAD
:10216000B7C7B7A8C1B4BDD328B1C8C8E7746F6BEF
:10217000656EB7C7B7A8290D0A0000004552523A4C
:1021800009C1ACBDD3CAA7B0DCA3BACEB4D6AAB439
:10219000EDCEF30D0A0000005741524E3A094D5161
:1021A00054545F5061636B6574436F6E6E65637406
:1021B000204661696C65640D0A0000007B22646141
:1021C000746173747265616D73223A5B0000000084
:1021D0002E0000207B226964223A2248756D692214
:1021E0002C2264617461706F696E7473223A5B7B38
:1021F0002276616C7565223A25647D5D7D2C000038
:102200007B226964223A2254656D70222C2264611B
:102210007461706F696E7473223A5B7B2276616CB5
:102220007565223A25647D5D7D2C000033392E3999
:1022300030393630340000003131362E3339373200
:10224000323832007B226964223A22475053222CD2
:102250002264617461706F696E7473223A5B7B22D1
:1022600076616C7565223A7B226C6F6E223A25731B
:102270002C226C6174223A25737D7D5D7D00000007
:102280005D7D0000546970733A094F6E654E657448
:102290005F53656E64446174612D4D5154540D0A51
:1022A000000000006275666865783A25730D0A00C3
:1022B00053656E642025642042797465730D0A00AD
:1022C0005741524E3A094D5154545F4E657742750D
:1022D00066666572204661696C65640D0A000000DF
:1022E000636D6469643A2025732C207265713A200D
:1022F00025732C207265715F6C656E3A2025640D24
:102300000A0000005975616E7368695F6D717474BD
:102310005061636B65742E5F6C656E3D25640D0ABC
:1023200000000000546970733A0953656E642043DD
:102330006D64526573700D0A00000000546970737B
:102340003A094D515454205075626C69736820539A
:10235000656E64204F4B0D0A000000007265646CCE
:10236000656400001CA12148FFF7B3F828E0002CA9
:1023700026D11FA11D48FFF7ACF821E021A1389814
:1023800001F090FF60B1012C04D121A11748FFF7A3
:10239000A0F815E0A4B923A11448FFF79AF80FE0BC
:1023A00025A1389801F07EFF10B1012C08D007E07C
:1023B00024A1389801F076FF10B1012C00D000BFA5
:1023C0000F2E01D0032E05D1379801F04AFD389821
:1023D00001F047FD00BF20E64C6564345F5365742F
:1023E000284C45445F4F4E29000000000038014052
:1023F0004C6564345F536574284C45445F4F4646D2
:1024000029000000677265656E6C6564000000005D
:102410004C6564355F536574284C45445F4F4E29C5
:10242000000000004C6564355F536574284C4544DA
:102430005F4F46462900000079656C6C6F776C65CC
:1024400064000000626C75656C65640070B50446DC
:102450000E460025206898B901202074304601F00E
:10246000D1FC20602068E0B10020A060E66003E0BD
:102470000020216848556D1CE068A842F8D810E09B
:102480000220207403E00020216848556D1CE0689C
:10249000A842F8D80020A060E068B04201D2002035
:1024A000206070BD10B50446207C012802D1206850
:1024B00001F0D7FC00202060A060E060207410BD17
:1024C0000246002301230DE002F07F000870D209CC
:1024D0002AB1087840F080000870491C01E01846D5
:1024E00070475B1C042BEFDD4FF0FF30F8E7F0B5D1
:1024F00004460D462646012300201060002114E00A
:10250000775C07F07F07106807FB03001060705CC2
:1025100000F0800008B9481CF0BDDB01B3F5001FD6
:1025200002D36FF00100F7E7491CA942E8DB4FF046
:10253000FF30F1E7F8B50446FF2720780511012D9B
:1025400001DB0E2D0ADDF2A1F748FEF7C2FF2A4695
:10255000F6A1F548FEF7BDFF3846F8BD032D2CD196
:10256000002000906A460421601CFFF7C0FF204451
:10257000461C0098022803D3207800F0010028B1FF
:10258000EFA1E948FEF7A5FFFF20E6E77078317874
:1025900040EA0120801C0099884205D9ECA1E2485C
:1025A000FEF797FFFF20D8E7EDA1B01C01F07AFEFF
:1025B00008B10F2700E0032700E02F463846CCE79C
:1025C0002DE9FF4F83B082468B469146159C00252E
:1025D000002002900F270190484601F099FE0FFA63
:1025E00080F8B9F1000F03D1012007B0BDE8F08FEA
:1025F00008F10200384487B2109808B145F002058E
:10260000129878B145F00405129801F081FEC0B22D
:102610000290139801F07CFE01460298001D0844C8
:10262000384487B2119820B1012804D0022808D17B
:1026300004E000BF07E045F00C0504E045F0140598
:1026400001E00220D1E700BF149808B145F024054D
:10265000BAF1000F02D0BBF1000F01D10320C4E793
:1026600045F0C005504601F053FE0646584601F0BD
:102670004FFE3044001D384487B239462046FFF7EC
:10268000E5FE206808B90420AFE73946206801F06C
:10269000E1FE1021A268501CA06020688154A3684C
:1026A0002268D118781FFFF70BFF00B20190019844
:1026B000002804DA2046FFF7F5FE052095E7A1681B
:1026C00001980844A0600021A268501CA060206806
:1026D00081540421A268501CA060206881544D21BF
:1026E000A268501CA060206881545121A268501C2F
:1026F000A060206881545421A268501CA06020680A
:102700008154A268501CA060206881540421A268F2
:10271000501CA06020688154A168481CA0602068FB
:1027200045540698010AA268501CA0602068815494
:102730000698C1B2A268501CA06020688154C8F3FA
:102740000721A268501CA06020688154A268501C18
:10275000A060206800F80280A268216888184246BC
:10276000494601F08DFDA0684044A06005F00400DA
:10277000B8B30026139808B96AA01390129801F014
:10278000C7FD86B2310AA268501CA060206881543F
:10279000A268501CA06020688654A268216888182E
:1027A0003246129901F06CFDA0683044A060139885
:1027B00001F0AEFD86B2310AA268501CA06020680C
:1027C0008154A268501CA06020688654A2682168C9
:1027D00088183246139901F053FDA0683044A06078
:1027E00000BF05F08000C8B1504601F091FD86B2EF
:1027F000310AA268501CA06020688154A268501C55
:10280000A06020688654A268216888183246514624
:1028100001F036FDA0683044A06000BF05F0400024
:10282000C8B1584601F074FD86B2310AA268501C46
:10283000A06020688154A268501CA0602068865463
:10284000A268216888183246594601F019FDA0682F
:102850003044A06000BF0020C7E610B50446022146
:102860002046FFF7F3FD206808B9012010BDE021E4
:10287000A268501CA060206881540021A268501CEE
:10288000A060206881540020F0E7014648780228C3
:1028900001D001207047887810B18878012801D1D3
:1028A000C878F7E7FF20F5E72DE9F84F804689461D
:1028B00093469A460D9C0027002500200090002694
:1028C000B8F1000F02D10120BDE8F88F00250AE021
:1028D00019F80500232803D019F805002B2801D189
:1028E0000220F1E76D1C19F805000028F0D146F030
:1028F00030060B9808B146F0010605EB0A00871C6C
:102900000A9820B1012831D0022837D132E02BE0DB
:102910003D3D3D3D3D3D4D5154544B49543D3D3D64
:102920003D3D0D0A00000000003801404D51545457
:102930004B49542E747970653D25640D0A000000E2
:102940003D3D3D3D3D3D313D3D3D3D3D0D0A0000A0
:102950003D3D3D3D3D3D323D3D3D3D3D0D0A00008F
:10296000246372657100000000BF09E046F00206B2
:10297000BF1C05E046F00406BF1C01E00320A3E7EE
:1029800000BFF91C2046FFF761FD206808B904204C
:102990009AE7F91C206801F05DFDA168481CA06061
:1029A00020684654A268206881183846FFF788FDE1
:1029B00000900098002804DA2046FFF773FD0520F8
:1029C00082E7A16800980844A060C5F30721A268C7
:1029D000501CA06020688154A268501CA060206830
:1029E0008554A268216888182A46494601F048FCA7
:1029F000A0682844A0600A9860B14FEA1821A26834
:102A0000501CA06020688154A268501CA0602068FF
:102A100000F80280BBF1000F09D0A2682168881875
:102A20005246594601F02CFCA0685044A06000209A
:102A30004AE72DE9FF4107460D4690461E460A9C8F
:102A400001200021CDE90001EB1C0A46F7A1CDE9E8
:102A500002040A20FFF728FF88B9A168481CA0607B
:102A600020684654C5F30721A268501CA060206866
:102A70008154A268501CA0602068855403E00120A6
:102A800004B0BDE8F0810020FAE72DE9F843804664
:102A90000C4615461E462F2108F1030001F0E6FB07
:102AA00007460020009017B90120BDE8F8837F1C7D
:102AB0006A46042108F10100FFF719FD252001F005
:102AC000A1F92060206808B90220EEE725212068DE
:102AD00001F0C0FC24223946206801F044FC243770
:102AE00000982C3830803188481C01F08BF9286020
:102AF000286820B9206801F0B4F90320D5E73288AE
:102B0000511C286801F0A6FC32883946286801F07B
:102B10002AFC0020C9E72DE9FF5F07460D469046D5
:102B2000384601F0F5FB86B2284601F0F1FB1FFAAA
:102B300080FA4FF00009B01D01F064F904461CB999
:102B4000012004B0BDE8F09FB11D204601F082FCD9
:102B5000B7A0016821608088A080324639462046AF
:102B600001F08EFB284601F0D3FB83465A46B2A102
:102B7000B848FEF7AEFC284601F0CAFB83460120A8
:102B8000002100915B462A46CDE9020801912146C9
:102B90000A20FFF789FE10B94FF0000901E04FF05D
:102BA0000109204601F05DF94846CAE72DE9FF5FBB
:102BB0008046174699460E9C0026B246B34600252D
:102BC000B8F1000F03D1012004B0BDE8F09F0BE085
:102BD00057F8250008B90220F6E757F8250001F05C
:102BE00097FB0644681CC5B24D45F1DB09EB490073
:102BF000801C00EB060A0AF105012046FFF726FCBF
:102C0000206808B90320DFE78221A268501CA06079
:102C100020688154A268206881185046FFF750FC54
:102C20000FFA80FBBBF1000F04DA2046FFF73AFCF5
:102C30000420C9E7A0685844A0604FEA1821A268A0
:102C4000501CA06020688154A268501CA0602068BD
:102C500000F80280002524E057F8250001F058FB19
:102C60000646C6F30721A268501CA0602068815464
:102C7000A268501CA06020688654A3682268D018FF
:102C800057F82510324601F0FBFAA0683044A060E6
:102C90000198C1B2A268501CA06020688154681CD1
:102CA000C5B24D45D8DB00208EE70146FF208A786B
:102CB000A2B9CA78142A11D10A7932B1012A05D0F1
:102CC000022A04D0802A06D103E000BF00BF002002
:102CD00003E0012001E0022000BF00BF70472DE9A2
:102CE000F05F80460F4691461C460026B246B3462A
:102CF0000025B8F1000F02D10120BDE8F09F0BE0E4
:102D000057F8250008B90220F7E757F8250001F029
:102D1000FFFA0644681CC5B24D45F1DB022000EB0A
:102D2000490000EB060A0AF105012046FFF78EFB79
:102D3000206808B90320E0E7A221A268501CA06027
:102D400020688154A268206881185046FFF7B8FBBC
:102D50000FFA80FBBBF1000F04DA2046FFF7A2FB5D
:102D60000420CAE7A0685844A0604FEA1821A2686E
:102D7000501CA06020688154A268501CA06020688C
:102D800000F8028000251DE057F8250001F0C0FA88
:102D90000646C6F30721A268501CA0602068815433
:102DA000A268501CA06020688654A3682268D018CE
:102DB00057F82510324601F063FAA0683044A0604D
:102DC000681CC5B24D45DFDB002096E701460120B7
:102DD0008A781AB9CA781E2A00D1002070472DE9D6
:102DE000FC5F81460D4614461E46DDE90C8B99F8C2
:102DF000000000F00F0A002001900AF00800009087
:102E0000CAF341008BF8000001AA042109F1010076
:102E1000FFF76DFB4844471C0198022802D30AF0D3
:102E20000100C8B1FF20BDE8FC9F000024647000D1
:102E300024637273702F0000636D64726573705F3A
:102E40007374726C656E28726571293D25640D0A74
:102E500000000000003801407878397840EA01200D
:102E600020802088801C0199884202D9FF20BDE87B
:102E7000FC9FAFF21451B81C01F014FA08B10F20F6
:102E8000F5E79BF8000020B101283DD0022877D15A
:102E90003BE0009808B1FF20E9E72188481C00F0DA
:102EA000B1FF2860286808B9FF20E0E72288511C9C
:102EB000286801F0CFFA2288B91C286801F053FA7B
:102EC0000198801E2188401AA8F80000B8F8001068
:102ED000481C00F097FF3060306820B9286800F087
:102EE000C0FFFF20C3E7B8F80020511C306801F094
:102EF000B1FAB8F80020B4F800C0BB1C0CEB030119
:102F0000306801F030FA4FE000BF2088801C019942
:102F1000884201D9FF20AAE72088C01C395C20889C
:102F2000801C385C41EA00210E9801800E9808B997
:102F3000FF209CE72188481C00F064FF2860286877
:102F400008B9FF2093E72288511C286801F082FA13
:102F50002288B91C286801F006FA0198001F218810
:102F6000401AA8F80000B8F80010481C00F04AFF0A
:102F70003060306828B9286800F073FFFF2076E7DA
:102F800010E0B8F80020511C306801F063FAB8F87E
:102F90000020B4F800C03B1D0CEB0301306801F0C9
:102FA000E2F901E0FF2062E700BF2B21284601F093
:102FB0005DF920B92321284601F058F908B1FF2016
:102FC00055E7002053E770B505460C46042120461E
:102FD000FFF73CFA206808B9012070BD4021A268C3
:102FE000501CA060206881540221A268501CA0607F
:102FF000206881542912A268501CA0602068815466
:10300000A268501CA060206885540020E5E70146B6
:103010004878022801D001207047887820B9C87804
:103020000A2801D10020F7E70120F5E770B5054631
:103030000C4604212046FFF709FA206808B9012050
:1030400070BD5021A268501CA060206881540221EC
:10305000A268501CA060206881542912A268501CEC
:10306000A06020688154A268501CA060206885542C
:103070000020E5E701464878022801D0012070478A
:10308000887820B9C8780A2801D10020F7E7012004
:10309000F5E770B505460C4604212046FFF7D6F942
:1030A000206808B9012070BD6221A268501CA06090
:1030B000206881540221A268501CA06020688154BD
:1030C0002912A268501CA06020688154A268501C7C
:1030D000A060206885540020E5E702465078022869
:1030E00001D0012070479078B0EB112F05D1D07836
:1030F000CBB2984201D10020F4E70120F2E770B58D
:1031000005460C4604212046FFF7A0F9206808B9BF
:10311000012070BD7021A268501CA06020688154FD
:103120000221A268501CA060206881542912A26864
:10313000501CA06020688154A268501CA0602068C8
:1031400085540020E5E701464878022801D0012097
:103150007047887820B9C8780A2801D10020F7E79D
:103160000120F5E710B5044602212046FFF76EF96D
:10317000206808B9012010BDC021A268501CA060C1
:10318000206881540021A268501CA06020688154EE
:103190000020F0E70246002002E000231354401C08
:1031A0008842FAD370472DE9F04FADF57D7D824618
:1031B000884693469946404601F0AAF80546484697
:1031C00001F0A6F80646584601F0A2F8074604208A
:1031D0000290C82180A8FFF7DDFFC82103A8FFF7F0
:1031E000D9FF0C240DB1A01C44190EB1A01C8419E8
:1031F0000FB1A01CC419504601F08AF850440222B5
:1032000076A1019001F06FF9A21E75A103A800F04C
:1032100069FE03A9504601F09AF8C82180A8FFF77B
:10322000B9FFC82103A8FFF7B5FF6FA1504601F011
:103230008EF8F3B206F47F40020A71A180A800F074
:1032400051FE80A9504601F082F8C82180A8FFF7FE
:10325000A1FF4A466DA180A800F044FE03A980A802
:1032600000F020FD03A9504601F071F8C82180A8A4
:10327000FFF790FFC82103A8FFF78CFFEBB205F41E
:103280007F40020A5EA180A800F02CFE80A9504673
:1032900001F05DF8C82180A8FFF77CFF42465BA1E2
:1032A00080A800F01FFE03A980A800F0FBFC03A982
:1032B000504601F04CF8C82180A8FFF76BFFC821E9
:1032C00003A8FFF767FFFBB207F47F40020A4CA197
:1032D00080A800F007FE80A9504601F038F8C82108
:1032E00080A8FFF757FF5A4648A180A800F0FAFDD2
:1032F00003A980A800F0D6FC03A9504601F027F8E6
:10330000C82180A8FFF746FFC82103A8FFF742FFA6
:1033100003A980A800F0C6FC03A9504601F017F8E5
:103320003BA1504601F013F820460DF57D7DBDE828
:10333000F08F2DE9F043E5B005460C46164606F140
:103340000807204600F0E4FF8046284600F0E0FF32
:1033500000EB050902222FA1484601F0C4F83A46C5
:103360001FA101A800F0BEFD01A9284600F0EFFF53
:10337000C82133A8FFF70EFFC82101A8FFF70AFFF5
:1033800025A1284600F0E3FF08F0FF0308F47F4082
:10339000020A1BA133A800F0A5FD33A9284600F0BE
:1033A000D6FFC82133A8FFF7F5FE224617A133A8A0
:1033B00000F098FD01A933A800F074FC01A928468B
:1033C00000F0C5FFC82133A8FFF7E4FEC82101A81B
:1033D000FFF7E0FE384665B0BDE8F083313000000D
:1033E000253032780000000030303034344435313C
:1033F0003534353430344330303130300000000063
:103400002530327825303278000000002573000026
:103410000D0A0000333000003031303030333234A8
:10342000363437303031000010B58021F64801F0D5
:1034300011F80020F549088010BDF448008808B94B
:1034400001207047F1480088F1490988884203D17A
:103450000020EE490880F4E7EC480088EC49088039
:103460000120EEE72DE9F04104460D46C82620462E
:1034700000F04EFF87B23A462146E648FEF710F8C4
:10348000C820FDF725FF13E0FFF7D7FF68B9DE4935
:10349000E148FEF71EF82946DB4800F003FF20B1A3
:1034A000FFF7C2FF0020BDE8F0810A20FDF710FF02
:1034B0003000A6F10101CEB2E6D10120F3E72DE9FB
:1034C000F04104460D4616464FF0C80800272A462C
:1034D0002146D048FDF7E4FFC820FDF7F9FE29E0BA
:1034E000FFF7ABFF18BBC849CB48FDF7F2FF3146E9
:1034F000C54800F0D7FE20B1FFF796FF0020BDE8D9
:10350000F081A7B9C5A1C04800F0CCFE78B1012771
:10351000C4A1C148FDF7DDFFFFF786FF4FF44870F7
:10352000FDF7D6FE2A462146BA48FDF7B9FF0A2024
:10353000FDF7CEFE5FEA0800A8F1010101F0FF08E7
:10354000CED10120DBE770B504460E46FFF76CFFD5
:10355000204600F0DDFE85B22A462146AD48FDF743
:103560009FFFC820FDF7B4FE002070BD2DE9F04795
:10357000FEB080460D460027BA460024A1464FF40F
:10358000FA7101A800F088FF2E4605EBD6704310B3
:10359000A7A2AAA101A800F0A5FC01A800F0B8FE0E
:1035A00007463C4607E050460AF1010A18F80000B9
:1035B00001A90855641C7819A042F4DC0D222046AC
:1035C000641C01A90A540A222046641C0A540022E1
:1035D0002046641C0A54781900F10209002607E00D
:1035E00001A8835D324697A18B48FDF772FF761CD8
:1035F0004E45F5DB1FFA89F197A201A8FFF75FFF9F
:1036000058B996A18448FDF764FF4FF4FA70FDF7AE
:103610005FFE9CA18048FDF75CFF7EB0BDE8F087AF
:1036200030B599B00546002464229949684600F0F7
:10363000DFFE00BFFFF701FF002827D1724976485F
:10364000FDF747FF93A1704800F02CFE044624B913
:1036500091A17148FDF73DFF18E094A16E48FDF778
:1036600038FF641C224695A16B48FDF732FF2146C6
:10367000684600F06CFE69466748FDF72AFF94A192
:103680006846FFF760FF012019B030BD0A20FDF742
:103690001FFE2800A5F101018DB2CBD1FFF7C4FEBA
:1036A0000020F1E72DE9F04106460027002400251F
:1036B00000BFFFF7C2FE002835D153495648FDF739
:1036C00008FF84A1504800F0EDFD074627B972A11C
:1036D0005148FDF7FEFE26E084A14F48FDF7F9FEB4
:1036E0006CA1494800F0BCFD04460AE0681CC5B264
:1036F00021464948FDF7EDFE66A1002000F0B0FD2F
:1037000004460CB1042DF1DB042D0AD17AA1424804
:10371000FDF7DFFE21464048FDF7DBFE2046BDE811
:10372000F0810020FBE70A20FDF7D2FD3000A6F172
:1037300001018EB2BDD100BFF1E710B5FFF774FEF5
:103740004FF47A70FDF7C4FD6EA13348FDF7C1FE5A
:1037500003E04FF4FA70FDF7BBFD3FA16CA0FFF74B
:1037600081FE0028F5D103E04FF4FA70FDF7B0FDBB
:1037700039A169A0FFF776FE0028F5D169A1264896
:10378000FDF7A7FE03E04FF4FA70FDF7A1FD32A1AB
:1037900066A0FFF767FE0028F5D166A11E48FDF779
:1037A00098FE03E04FF4FA70FDF792FD2AA165A0A0
:1037B000FFF758FE0028F5D1FFF736FE64A167A099
:1037C000FFF750FE28B968A204210846FEF783F8E7
:1037D00004E069A204210846FEF77DF841F2883032
:1037E000FDF776FDFFF720FE67A10B48FDF771FEA0
:1037F00019A168A0FFF736FE28B969A2042108467E
:10380000FEF769F8D9E0D3E03C0100203401002044
:103810003601002000440040003801404552524F1C
:1038200052000000666C6167203D203100000000FE
:1038300041542B4E534F53443D31000025732C25EA
:10384000642C000053656E644275665B25645D20E0
:103850003D2025630D0A00004F4B00002A2A2A2A2A
:103860002A2A2A2A2A424333355F53656E64524519
:1038700056434D442A2A2A2A2A2A2A2A2A2A0D0A63
:103880000000000053656E64204F4B0D0A000000DD
:103890002C6600082C0000002249504422206E6F44
:1038A0007420666F756E640D0A000000CAD5B5BD40
:1038B000B7B5BBD8CAFDBEDD0D0A0000BDD3CAD561
:1038C000B5C4CAFDBEDDC1BF25730D0A00000000EE
:1038D00031000000312C3138332E3233302E343069
:1038E0002E33392C363030322C000000CAD5B5BD0D
:1038F000CAFDBEDD0D0A0000BDD3CAD5CDEAB3C9ED
:103900000D0A0000312E415445300D0A0000000020
:10391000415445300D0A000041542B434D45453D6F
:10392000310D0A00322E41540D0A000041540D0A97
:1039300000000000332E41542B4347534E3D310DC0
:103940000A00000041542B4347534E3D310D0A00FD
:103950002B4E42414E443A350000000041542B4E5C
:1039600042414E443F0D0A0042414E443A352052F6
:1039700045475B2E2E5D000042414E443A382052AE
:1039800045475B2E2E5D0000342E41542B43494D9C
:10399000490D0A0041542B43494D490D0A000000CE
:1039A0004E4253494D43415244205B4F4B5D000012
:1039B0005DA204210846FDF78EFF4FF4FA70FDF773
:1039C00087FCFFF731FD5CA15E48FDF782FD03E057
:1039D0004FF4FA70FDF77CFC5BA15EA0FFF742FD9F
:1039E0000028F5D0FFF720FD5DA15648FDF771FDD9
:1039F000AFF29C115EA0FFF735FD4FF4FA70FDF7B2
:103A000067FC5FA14F48FDF764FD07E060A14D48EA
:103A1000FDF75FFD4FF4FA70FDF75AFC61A163A05A
:103A2000FFF720FD0028F1D163A14648FDF751FDC5
:103A3000AFF2DC1164A0FFF715FD4FF4FA70FDF74B
:103A400047FC65A13F48FDF744FD08E0AFF2F811DF
:103A500069A0FFF707FD4FF4FA70FDF739FCAFF2EC
:103A6000082169A0FFF7FEFC0028EFD16DA13548C1
:103A7000FDF72FFD70A13348FDF72BFD29E05EA176
:103A80003048FDF726FDAFF230215BA0FFF7EAFCDE
:103A90004FF4FA70FDF71CFC5BA12A48FDF719FDF5
:103AA0000CE055A12748FDF714FDAFF2542152A0B8
:103AB000FFF7D8FC4FF4FA70FDF70AFCAFF268216B
:103AC00051A0FFF7CFFC0028EBD14FF4FA70FDF7BF
:103AD000FFFBAFF27C2158A0FFF7C4FC0028CED139
:103AE0005DA11848FDF7F5FC10BD10B540F2255159
:103AF0006048FDF745FBB0B15F480088802802D3DD
:103B000000205D4908805B48001D0088C1B25A480A
:103B100002880088401C584B188058488154202146
:103B20005448FDF724FB10BD4E4253494D434152CA
:103B300044205B4E4F5D0000352E41542B435351C2
:103B40000D0A0000003801404353513A39392C39ED
:103B50003900000041542B4353510D0A000000006E
:103B6000362E41542B43474154543D310D0A000039
:103B700041542B43474154543D310D0A000000008D
:103B8000372E41542B43474154543F0D0A00000047
:103B900052656765646974205044505B2E2E5D0D3C
:103BA0000A00000043474154543A310041542B432A
:103BB000474154543F0D0A00382E41542B4347507F
:103BC000414444520D0A000041542B4347504144A4
:103BD00044520D0A00000000392E41542B4E534F21
:103BE00043523D53545245414D2C362C35363030DE
:103BF000302C310D0A00000041542B4E534F434CE2
:103C00003D310D0A0000000041542B4E534F4352EA
:103C10003D53545245414D2C362C35363030302CE6
:103C2000310D0A002D2D2D2D2D2D2D2D2D2D2D2D30
:103C30002D2D2D2D2D0D0A0041542B4E534F434F4A
:103C40003D312C3138332E3233302E34302E33394F
:103C50002C363030320D0A003D3D3D3D3D42433370
:103C60003520496E6974204F4B3D3D3D3D3D0D0A69
:103C70000000000000440040340100203C0100200E
:103C800001460020002905DB092903DC01F130028F
:103C9000D0B206E0092904DD102902DA01F1370269
:103CA000D0B270472DE9F04105460C460027B846D2
:103CB000002605B11CB94FF0FF30BDE8F081284661
:103CC00000F026FB10B96FF00100F6E70EE02E7849
:103CD000371106F00F083846FFF7D2FF2070641C3A
:103CE0004046FFF7CDFF2070641C6D1C287800282B
:103CF000EDD1207000BFE0E730B5034600200DE0B5
:103D00001C5C3F4D05EB1414247802F8014B1C5C3D
:103D100004F00F042C5D02F8014B401C8842EFDBDD
:103D20000024147030BD2DE9F04105460C462046B4
:103D300000F0EEFA074600205AE014F8101030297F
:103D400008DB14F81010392904DC14F8101030398D
:103D50000E0118E014F81010412908DB14F81010B7
:103D6000462904DC14F8101037390E010BE014F862
:103D70001010612907DB14F81010662903DC14F811
:103D8000101057390E014100491C615C30290BDBD2
:103D90004100491C615C392906DC4100491C615C19
:103DA00030393144295422E04100491C615C4129E9
:103DB0000CDB4100491C615C462907DC4100491CC1
:103DC000615C413931440A31295410E04100491CF9
:103DD000615C61290BDB4100491C615C662906DCE2
:103DE0004100491C615C613931440A312954401C4D
:103DF00007EBD772B0EB620F9FDBBDE8F0810000EC
:103E00009066000870B5064600F09CFB056806F158
:103E10000B0020F00704B4429CBF002070BD2B466D
:103E20006A68BAB11068A04210D304F10801884250
:103E30003CBF5068586007D3516810194160116841
:103E4000091B016058601460101D70BD1346526854
:103E5000002AE7D12146284600F080FB0028DED169
:103E600070BD70B50446051F00F06CFB0068002CA7
:103E700014BF446870BD002C18BFAC423CBF204644
:103E80006468F8D301680A18AA4218BF456003D1D4
:103E90002A6805461144016028684119A1421CBFE7
:103EA0006C6070BD6168696021680844286070BDFD
:103EB0007CB51D4616460C00009001D02044401EE3
:103EC000074B7B442A4669460190304600F015FCBA
:103ED00005461CB10020694600F022FC28467CBD46
:103EE000650800000FB41CB5084B06AA7B44694660
:103EF0000090059800F001FC04460020694600F09F
:103F00000FFC20461CBC5DF814FB000031080000CB
:103F100070B5044685690068C10601D5302600E009
:103F20002026C00707D070BDD4E901213046904754
:103F3000206A401C20626D1EF6D570BD70B5044627
:103F400085690078C00707D170BDD4E90121202020
:103F50009047206A401C20626D1EF6D570BD70B57A
:103F60000C460546012A05D02878800600D5EA6966
:103F7000002302E0012305E05B1C934202D2E05CD7
:103F80000028F9D1A869E618C01AA861286A18445F
:103F900028622846FFF7BCFF04E0D5E9012114F8A8
:103FA000010B9047B442F8D32846FFF7C7FF70BD16
:103FB0002DE9F0410646002410687529314616A502
:103FC00010D000F015FB002802DA404213A507E0EC
:103FD00031688A0701D512A502E0490704D511A569
:103FE000012401E000F00DFB00210A2206F1240764
:103FF00009E0B0FBF2FCB0FBF2F302FB1C00303036
:1040000078541846491C0028F3D123462A463046E6
:10401000BDE8F04100F0FEBA000000002D000000F5
:104020002B00000020000000F0B40D4601880905B7
:1040300002D5214C7C4402E01F4C7C440E3400210C
:1040400000F1240608E002F00F071209E75D42EADA
:1040500003721B097754491C52EA0307F3D1027813
:104060000023120704D5702D06D009B102231134A4
:104070002246F0BC00F0CEBA01231034F8E770B548
:1040800004460D462146106800F0BBFA0246294658
:104090002046BDE870400023C6E7D21D22F007038A
:1040A000D3E90023C0E70368126843F020030360EC
:1040B0000823C3610023B7E7692600002DE9F05FFC
:1040C000894604464FF0000ADFF874B1FB44C0F89B
:1040D00020A02046E1688847002874D0252806D013
:1040E000D4E901219047206A401C2062F1E70026B4
:1040F0005F462046E16888472028054607DB312DCA
:1041000005D2781910F8200C08B10643F1E7B00782
:1041100001D526F00406C4F81CA00027C4F818A096
:104120002A2D09D0284601F03DFE38B304EB87085C
:10413000303DC8F8185019E059F8041B204604EB2C
:1041400087029161E1688847012F054618D1E0692F
:10415000002820DA26F020061DE0D8F8180000EB31
:10416000800005EB40003038C8F818002046E168B0
:104170008847054601F016FE0028EED1012F0AD02F
:104180002E2D08D12046E16888477F1C0546022F66
:1041900046F02006C4DBA069002803DA404246F05E
:1041A0000106A061F00701D026F010066C2D0BD09F
:1041B000682D09D04C2D39D06A2D35D0742D35D0CD
:1041C0007A2D33D016E038E0E1682F462046884744
:1041D000B842054609D16C2F26D04FF48060E168C3
:1041E000064320468847054604E06C2F1AD04FF45A
:1041F000807006430DB3A5F14100192802D820357F
:1042000046F400664A462946204626604E46FBF79D
:10421000E9FF80B101280BD0F61D26F0070000F160
:10422000080956E74020E4E78020D8E70020D6E7D9
:1042300006F104094DE7284652E7206ABDE8F09FE1
:10424000F925000070B5064600F080F904680546BF
:1042500030460A22002100F05BFB2C6070BD00009C
:10426000014A00F08DBB000038010020401ECAB298
:1042700010F8011F8A4202D00029F9D100207047AE
:1042800010B5431E13F8014F002CFBD105E011F8C7
:10429000014B002C03F8014B03D0521EF7D2002132
:1042A000197010BD30B505460B462A4613F8014B70
:1042B00012F8010B08B1A042F8D01CB1002802D0BE
:1042C0006D1CF1E7284630BD40EA0103024630B5D7
:1042D0009B0710D14FF0013400E008C208C91D1B34
:1042E0009D4315EAC41FF8D013F0FF0102F8011B2B
:1042F0000DD01B0AF8E711F8013B002B02F8013B37
:1043000005D011F8013B002B02F8013BF3D130BD81
:1043100010B5431C02E010F8011B71B18107FAD1FE
:104320004FF0013202C88C1A8C4314EAC211F9D042
:10433000C01A0A0603D0C01E10BDC01A10BD0A0460
:1043400001D0801E10BD0902FCD0401E10BD421ECF
:1043500012F8013F002BFBD111F8013B002B02F8B2
:10436000013BF9D17047032A40F2308010F0030C72
:1043700000F0158011F8013BBCF1020F624498BFB8
:1043800011F801CB00F8013B38BF11F8013BA2F155
:10439000040298BF00F801CB38BF00F8013B11F0D0
:1043A000030300F02580083AC0F0088051F8043B70
:1043B000083A51F804CBA0E80810F5E7121D5CBFDD
:1043C00051F8043B40F8043BAFF30080D20724BF10
:1043D00011F8013B11F801CB48BF11F8012B24BFA4
:1043E00000F8013B00F801CB48BF00F8012B7047F3
:1043F00010B5203AC0F00B80B1E81850203AA0E880
:104400001850B1E81850A0E81850BFF4F5AF5FEAB3
:10441000027C24BFB1E81850A0E8185044BF18C966
:1044200018C0BDE810405FEA827C24BF51F8043B0D
:1044300040F8043B08BF7047D20728BF31F8023B61
:1044400048BF11F8012B28BF20F8023B48BF00F8F5
:10445000012B70474FF000020429C0F0128010F0C9
:10446000030C00F01B80CCF1040CBCF1020F18BF50
:1044700000F8012BA8BF20F8022BA1EB0C0100F0E3
:104480000DB85FEAC17C24BF00F8012B00F8012BB6
:1044900048BF00F8012B70474FF0000200B51346EB
:1044A00094469646203922BFA0E80C50A0E80C5054
:1044B000B1F12001BFF4F7AF090728BFA0E80C5005
:1044C00048BF0CC05DF804EB890028BF40F8042BFE
:1044D00008BF704748BF20F8022B11F0804F18BF6B
:1044E00000F8012B704710B5044610F0030F08BF09
:1044F00011F0030F40F015804FF0013E121FC0F283
:104500000E8051F8043BA3EB0E0C2CEA030C1CEAC2
:10451000CE1C08BF40F8043BF0D0A1F1040102F129
:104520000402521E08DB11F8013B002B00F8013B8E
:10453000F7D11146FFF78EFF204610BD7047704738
:104540007047000000487047C401002000487047D1
:10455000BC010020704770477047704738B504466B
:104560000A4600206946AFF30080002808BF38BD26
:1045700002460099204600F031FA012038BD0120A2
:1045800000F09BBEF8B5AFF30080054600200C4656
:10459000102000BF0646A819A0420DD93246694630
:1045A0000020AFF30080070008BF00F086FE0098EF
:1045B000A04218BF0546C419FFF7C4FF05600746AF
:1045C000F01D20F007004619284600F00AF8B44212
:1045D00008BFF8BDA21B31463868BDE8F84000F0BE
:1045E000FDB900210160C0E901107047102070473B
:1045F00009684A0501D540B27047C905FCD500B22B
:10460000704709684A0501D5C0B27047C905FCD595
:1046100080B270472DE9F0470D4699469246044610
:1046200000F124080168880604D5E06921F0100132
:10463000216000E00120A84201DD471B00E00027C7
:10464000A1697A1902EB0900081AA0612078C00656
:1046500002D42046FFF75CFC002608E0D4E90121E3
:104660001AF806009047206A401C761C20624E45CE
:10467000F4DB2078C0060AD52046FFF749FC06E0A7
:10468000D4E9012130209047206A401C2062381E66
:10469000A7F10107F4DC07E0D4E9012118F80500CF
:1046A0009047206A401C2062281EA5F10105F3DC1A
:1046B0002046FFF743FC2078000602D50220BDE823
:1046C000F0870120FBE711680268006A530501D5F5
:1046D00008700AE0D30501D5088006E0130603D56B
:1046E000C217C1E9000200E0086001207047000025
:1046F00001694A1C02610878704700B58FB0CDE9A6
:1047000001310021059105497944CDE90310114695
:104710006846FFF7D3FC0FB000BD0000E5FFFFFFC8
:104720000A6802F8010B0A607047D1E900239A4237
:1047300002D2531C0B601070704710B5436913B15F
:10474000AFF3008001E0FFF70AFC012010BD1278F2
:1047500000F124010A7000224A700122EDE711687D
:104760004FF0FF32E9E700002DE9FF5F15468A466A
:104770000446DFF8AC80F8440027D8E900103E4634
:10478000CDE9001010E03AF816106A4602A800F0D1
:1047900074FD411C07D02178890603D5E2693918D8
:1047A00091420DD80744761C2078800602D5E06936
:1047B000B84205DDAE42E6DB3AF816000028E2D149
:1047C000A069C01BA0612046FFF7A2FBD8E900103A
:1047D000CDE90010002017E03AF818106A4602A848
:1047E00000F04BFDB0F1FF3F81460BD000250DF1ED
:1047F000080B05E0D4E901211BF8050090476D1C6A
:104800004D45F7D308F10100B0428046E4DB206A51
:10481000384420622046FFF791FBBDE8FF9F00006F
:10482000621F00002DE9F0418046D21D22F00702F0
:104830000025D2E90002F52915A614D0011E72F157
:10484000000106DA0023D0EB030063EB020211A69D
:1048500008E0D8F800108B0701D50FA602E0490741
:1048600001D50EA601251146002408F1240704E015
:1048700000F0CEF830323A55641C50EA0102F7D10C
:104880002B46324621464046BDE8F041FFF7C2BE06
:10489000000000002D0000002B00000020000000A0
:1048A00030B4002100F1240408E002F00705D2082A
:1048B000303542EA4372DB086554491C52EA03056D
:1048C000F3D10468002310A2250708D504F02004C2
:1048D0000C4304D0C46901230CA2641EC46130BC23
:1048E000FFF798BE10B5044621461068FFF789FE11
:1048F00002462046BDE810400023D1E7D21D22F039
:104900000701D1E90023CBE70000000030000000E0
:104910002DE9F04791460F4680460446002614F8DC
:10492000015B2DB100F052F80068405DC007F6D180
:104930002B2D02D02D2D18D0641E4A463946204614
:1049400000F04CFC27B13968A14201D1C7F80080C2
:104950004FF0020471050BD54042002803DDFFF73C
:10496000F5FD0460A007BDE8F08746F48066E4E743
:104970000028F8DAFFF7EAFD04606FF00040F2E784
:104980002DE9F04115460E46040002D12C6804B909
:104990000BA4204600F0A8FC0444207870B1274600
:1049A0003146384600F090FC0444207810B10020D5
:1049B00004F8010B38462C60BDE8F0810027F9E7C8
:1049C0000000000000487047BC01002010B500F056
:1049D000BFFC001D10BD00BFDD1300000346406892
:1049E0008C46002818BF88423CBF03464068F8D375
:1049F00018681844884207D00CF1030020F0070023
:104A0000001D411A521A0146081D0A60FFF729BA13
:104A100030B5B0F10A024FEA900E71F100034EEA90
:104A2000817EB0EB0E0061EB91014FEA101E4EEA61
:104A3000017E10EB0E0041EB11114FEA102E4EEAF1
:104A4000016E10EB0E0041EB11214FEA104E4EEAC1
:104A5000014E10EB0E0041EB1141401841F10001F5
:104A60004FEAD00040EA41704FEAD10110EB8005D7
:104A70004FEA810444EA907444EB01046D1944EB5D
:104A80000404521BA3414FF0000348BF0A3200D573
:104A900030BD401C41F1000130BD70472DE9FF4F92
:104AA0000C461E464FF0FF378BB0D2E90001DDF80F
:104AB00060800A908A46C1F30A5505B93D46002137
:104AC00008464FF00000BAF1000F00F4400005DA8C
:104AD00000EB80004FF4400101EA50004FEA90598A
:104AE000B9F1010F00DDB9460A9850EA4A000ED02C
:104AF00044F61050A5F2FF3545432F14B8F1000FCE
:104B00001ED07542291E1EDDC9F100021CE0B8F15D
:104B1000010F4FF0000001D0302103E0F24305E027
:104B20002154401CB042FBDB3046002200212154BE
:104B30000B99C1F80880C1E900200FB0BDE8F08FE3
:104B4000BD1B6D1CDEE74A4600DA694206A800F08C
:104B500051FC06AB93E8070003AB83E8070050461F
:104B60000A9900F050FD8DE80700A0F500501F38AD
:104B700000900398002D09DD42F21F014A460844C7
:104B800003A90390684600F0AFFF08E0A0F50050CD
:104B90004A461F3803A90390684600F0B9FF8DE824
:104BA00007000004000C03D04FF0FF30410800E084
:104BB0001046B8F1000F03D00022009215461EE007
:104BC000751E05D4FFF724FF303262556D1EF9D5EE
:104BD000B3460122084302D000227F1C04E0207863
:104BE000302801D100227F1E002A099786D01DE0BF
:104BF000112D07DAFFF70CFF303262556D1C50EAB9
:104C00000102F5D1084302D00098C8B10EE000219E
:104C1000681E05E0235C625C63542254401E491CFC
:104C20008142F7DBAB46A81B401E0990002004F828
:104C30000B000B98099AC0F80880C0E9002B7CE7AC
:104C400011264FF0000859E72DE9F04F8846044639
:104C5000D21D22F0070191B0D1E90001CDE90A018E
:104C600001F08CF802460B98C00F01D02D2007E010
:104C70002068810701D52B2002E0202101EAC00035
:104C8000032A099001D0072A05DB03464146204646
:104C900000F062FB0BE12078800601D5E06900E0BE
:104CA0000620B8F1650F814606D0B8F1660F18D01E
:104CB000B8F1670F70D131E00020B9F1110F009009
:104CC00001DB112301E009F101030AAA01A90CA8E3
:104CD000FFF7E4FEDDE90C70002609F101058346CB
:104CE00047E001204B4600904FF000470AAA01A977
:104CF0000CA8FFF7D3FEDDE90DB00C995D46002648
:104D000010B909F101000D18B9EB050003D4C0F189
:104D1000FF3609F10105A5EB09002BE0B9F1010F00
:104D200001DA4FF001090020B9F1110F0090484657
:104D300001DD112300E003460AAA01A90CA8FFF730
:104D4000ADFEDDE90C704D46002683462078000755
:104D50000AD4AB4500DA5D4601A8012D04DD4119F6
:104D600011F8011C302907D04F4502DA17F1040F62
:104D700004DA012082460FE06D1EEEE7002F02DC10
:104D8000ED1B3E4403E0781CA84200DD7D1CB81BEF
:104D900000F1010A4FF000472078000703D4AA452C
:104DA00001DB4FF0FF3A0021B7F1004F0DF143084E
:104DB0008DF8431024D002202B23002F01DA7F42EC
:104DC0002D230A21021EA0F1010000DC5FB197FB38
:104DD000F1FC97FBF1F201FB1C7C17460CF1300C47
:104DE00008F801CDEEE7A8F101000370218809055C
:104DF00001D5452100E06521A0F1010800F8011C62
:104E000009980FA9A1EB0807FF1D00B10120411966
:104E100001EBEA70A1693844081A401EA0612078AD
:104E2000C00602D42046FFF773F8099828B1D4E9E8
:104E300001219047206A401C20622078C00622D5BC
:104E40002046FFF765F81EE0002E04DBB34502DDC7
:104E500001A8805D00E03020D4E901219047206A5C
:104E6000401C2062761CAAF101005FEA000A0AD108
:104E700000F06EFAC0680168405CD4E901219047F7
:104E8000206A401C2062281EA5F10105DCDC07E039
:104E9000D4E9012118F8010B9047206A401C2062D8
:104EA000381EA7F10107F3DC2046FFF747F803207F
:104EB00011B043E62DE9F04F04460D46D21D22F015
:104EC000070089B0D0E9009248461746394600F0FD
:104ED00055FF0246F80F01D02D2307E02068810717
:104EE00001D52B2302E0202101EAC0038DF82030F8
:104EF0000BB1012000E00020032A824601D0072ADE
:104F000004DB2946204600F027FA3DE120788006A0
:104F100001D40D2500E0E569C7F30A560D2D49DAE5
:104F200000214FEA175B08464FF00000002F00F405
:104F3000400007DA00EB80004FF4400100EBD07036
:104F400001EA60008115012901DD4FF0FF310022E7
:104F50004FEA850CBCF1180F06D31346ACF11800CC
:104F60004FF08052C24003E04FF4801323FA0CF359
:104F70000CF10C0CBCF1200F04D3ACF1200C09FA9D
:104F80000CF001E007FA0CF000294FF0004801DDB9
:104F900018B90FE00ED140450CD319EB02095F415F
:104FA00021B9404502D19F4329EA0209BBEB175FB3
:104FB00000D0761C2088000502D57B48784402E0AA
:104FC00079487844193808AA302302F80A30037C5B
:104FD0000AF10101002E0AF1020A53546A4602DC6A
:104FE0004FF0300101E04FF031014FF001088DF832
:104FF000001002D0A6F2FF3603E059EA470100D0C4
:105000006A4E002D02DC2178090704D54FF0020812
:105010002E218DF80110C44600210BE0C7F3034395
:105020003F01C35C491C6D1E02F80830052908F1D8
:10503000010801DA002DF1DC00210CE000EB19730E
:10504000491C1B786D1E082902F808304FEA09191F
:1050500008F1010801DA002DF0DC2178890602D57B
:1050600014E0A8F10108E04505DD02EB080111F8A4
:10507000011C3029F5D0B8F1000F07DD02EB080163
:1050800011F8011C2E2901D1A8F10108002D05DD20
:105090003E2102F808106D1E08F10108407C002E28
:1050A00002F8080008F1010804DA2D20764202F81F
:1050B000080002E02B2002F808000A214FF47A7061
:1050C000864208F101080BDB96FBF0F3303302F85F
:1050D000083096FBF0F308F1010800FB136601E0CD
:1050E000642E0CDB642096FBF0F3303302F80830BA
:1050F00096FBF0F308F1010800FB136601E00A2EAD
:1051000006DB96FBF1F0303002F8080008F10108E8
:1051100096FBF1F001FB1060303002F80800A16945
:1051200008F1010808EB050202EB0A00081AA06169
:105130002078C00602D42046FEF7EAFE216A08AEB7
:1051400001EB0A00206204E0D4E9012116F8010B0A
:105150009047BAF1010AF7D22078C00602D520465E
:10516000FEF7D6FE6E4609E016F8010B3E280FD07A
:10517000D4E901219047206A401C2062B8F101085F
:10518000F2D22046FEF7DAFE09B00320BDE8F08F28
:10519000206A2844206203E0D4E9012130209047AE
:1051A0006D1EEBD3F8E700003717000002FCFFFF8D
:1051B00010B5436913B1AFF3008001E0FFF7D4FAF3
:1051C000012010BD128800F1240182840022C284D3
:1051D0000122EDE711684FF0FF32E9E72DE9F05FBA
:1051E000824615468B4600270AF10104B94600782D
:1051F000302801D09DB113E014F8010B0127782865
:1052000003D0582801D045B10AE00DB1102D07D1C7
:10521000002714F8010B102502E0082500E00A25FC
:105220000026B0460EE005FB080005FB06F101274D
:105230001FFA80F801EB1046B6F5803F00D3B9465F
:1052400014F8010B294600F0C7F80028EBDABBF18F
:10525000000F05D00FB1641E00E05446CBF80040AB
:10526000B9F1000F06D0FFF771F902210160C81EE5
:10527000BDE8F09F48EA0640FAE770B516460C46CE
:105280000546FFF7A3FB036893F80101012806D048
:10529000FF2C0FD8185D68B101202C7070BDD3F8B9
:1052A00007013246214603F2071303442846BDE8AE
:1052B000704018474FF0FF3070BD10B500F014F982
:1052C000BDE8104000F00AB930B503461D781DB1A5
:1052D0000A4603E0AC4201D1181A30BD12F8014B66
:1052E000002CF7D15B1CF1E730B503461D783DB1CA
:1052F0000A4612F8014B1CB1AC42FAD15B1CF5E72F
:10530000181A30BD70477546FFF75CFBAE460500C6
:105310006946534620F00700854618B020B5FBF7D4
:105320006BF9BDE820404FF000064FF000074FF04A
:1053300000084FF0000B21F00701AC46ACE8C009B3
:10534000ACE8C009ACE8C009ACE8C0098D467047BC
:1053500000487047DC0100202DE9F0411F4604465B
:1053600003260168072A01F4006004DB08B116A5D2
:1053700005E016A503E008B115A500E015A521F08C
:1053800010002060A069C01EA0610FB1401EA06186
:105390002046FEF7BDFD4FB1D4E9012138469047C4
:1053A000206A401C2062C01C206206E0206AFAE7E6
:1053B000D4E9012115F8010B9047761EF8D220465A
:1053C000FEF7BCFDBDE8F0814E414E006E616E00FF
:1053D000494E4600696E66003A2800D2303820F007
:1053E0002002412A01D3A2F13700884201D34FF0B5
:1053F000FF3070472DE9F047814616468AB03348A2
:1054000078440DC88DE80D0030487844801C03AC0A
:105410000DC884E80D0041F69B300844372190FB0D
:10542000F1F290FBF1F5A5F1800501FB12041B3CA4
:1054300002D56442012000E00020DFF890A0804601
:105440000027FA44AAF1BE0A0DE0E00709D032466F
:10545000684607EB47010AEB810100F059FB8DE834
:10546000070064107F1C002CEFD1184F7F44AC3F25
:1054700018E0E80714D007EB04100DF1180A90E8C3
:105480000E008AE80E00C068F04201D19819089019
:10549000324606A903A800F03BFB03AB83E80700F4
:1054A0006D10641C002DE4D132466946B8F1000F3E
:1054B00003A802D000F018FB01E000F029FBC9E9C5
:1054C0000001C9F808200AB0BDE8F0878413000085
:1054D0000446AFF300802046FAF7EBFE002801D027
:1054E00000F02AB87047000010B5012805D000214F
:1054F00003A000F027F8012010BD09A1F8E7000083
:1055000053494752544D454D3A204F7574206F66AC
:105510002068656170206D656D6F72790000000014
:105520003A2048656170206D656D6F727920636FF8
:10553000727275707465640001491820ABBEFEE795
:105540002600020070B505460C460A2000E06D1CDE
:1055500000F052F835B128780028F8D102E0641C38
:1055600000F04AF814B120780028F8D1BDE8704066
:105570000A2000F041B800004FF0013C50F8042B25
:1055800051F8043B9A4221D1A2EB0C03934313EA56
:10559000CC1317D150F8042B51F8043B9A4215D183
:1055A000A2EB0C03934313EACC130BD150F8042B5A
:1055B00051F8043B9A4209D1A2EB0C03934313EA3E
:1055C000CC13DBD04FF00000704700BFD01A01BAF7
:1055D000B1FA81F101F0180122FA01F0CB40C1F1DA
:1055E0002001DBB2C0B2C01A2CFA01F3D11A9143E8
:1055F00011EAC311E6D1704708B569468DF800007D
:105600000320ABBE08BD5FEA400C08BF91F0000F5D
:105610004FEA8C234FEAC12243EA51514FEA1C5012
:1056200018BF00F5F0404FEA300018BF41F00041CC
:105630005FEA6C5C00F02980BCF1FF3F08BF40F0DE
:1056400080407047130C06BF12044FF0100C4FF04F
:10565000000C130E04BF12020CF1080C130F04BF50
:1056600012010CF1040C930F04BF92000CF1020C18
:10567000D30F04BF52000CF1010C11464FF0000291
:10568000A0F11F00A0EB0C00704711F0004F08BF05
:10569000704731F000413FF4D5AF0B0C06BF090451
:1056A0004FF0100C4FF0000C0B0E04BF09020CF170
:1056B000080C0B0F04BF09010CF1040C8B0F04BF85
:1056C00089000CF1020CCB0F04BF49000CF1010C56
:1056D000CCF12003A0EB0C0022FA03F302FA0CF247
:1056E00041EA030100F10100704720F07F4C80EA9D
:1056F000030023F07F47ACEB070303F57C5300F076
:10570000004003F1FF032DE980494FEA154B09B42E
:105710004FEA144325EA0B4E24EA03480FF204260D
:1057200006EB132749083E785FEA320203FB06675F
:10573000C7F5000707FB06F64FEA54374FEAD6468F
:1057400006F1020607FB066CCCF1005C4FEA1C4731
:105750002CEA074C07FB06F40CFB06F504EB154698
:105760004FEA961634BF00204FF000404FEAD13781
:1057700006FB07FC4FEA1C4C0CFB0BF7D21B03FB90
:105780000CF761EB07010CFB0EF7B0EB074072EB77
:1057900017420CFB08F734BFA2EB0742B2EB0742FB
:1057A00061EB17414FEA0C444FEA910706FB07FCF7
:1057B0004FEA1C4C0CFB0BF7B0EBC74072EB5732B7
:1057C00003FB0CF734BFA2EBC742B2EBC74261EB5D
:1057D00057310CFB0EF7B0EBC70072EB57720CFBA6
:1057E00008F734BFA2EBC702B2EBC70261EB5771F7
:1057F000039F4FEA816141EA921104EBCC044FEA26
:10580000D1374FEA826206FB07FC42EA90124FEA68
:1058100080604FEA1C4C0CFB0BF7D21B03FB0CF710
:1058200061EB07010CFB0EF7B0EB074072EB174280
:105830000CFB08F734BFA2EB0742B2EB074261EB67
:1058400017414FEA8C554FEA910704EB9C2406FB65
:1058500007FC4FEA1C4C0CFB0BF7B0EBC74072EB9C
:10586000573203FB0CF734BFA2EBC742B2EBC7427F
:1058700061EB57310CFB0EF7B0EBC70072EB5772C0
:105880000CFB08F734BFA2EBC702B2EBC70261EB17
:10589000577115EB4C254FEA816141EA92114FEAAD
:1058A00082624FEAD13742EA901206FB07FC44F1CC
:1058B00000044FEA80604FEA1C4C0CFB0BF7D21B34
:1058C00003FB0CF761EB07010CFB0EF7B0EB074095
:1058D00072EB17420CFB08F734BFA2EB0742B2EBA6
:1058E000074261EB174115EB1C154FEA813141EA84
:1058F00092414FEA823242EA90424FEA80304FEAC8
:105900000C7644F1000448EA03434EEA0B484FF09A
:10591000000EB2EB080C71EB030724BF6246394658
:105920004EEB0E0E4FF0000B0018524149414BEB6D
:105930000B0BB2EB080C71EB03077BF1000B24BFE0
:10594000624639464EEB0E0E4FF0000B00185241E6
:1059500049414BEB0B0BB2EB080C71EB03077BF1EE
:10596000000B24BF624639464EEB0E0E51EA020789
:1059700018BF46F0010616EB0E7655F1000254F101
:10598000000103D5BDE88901BDE80088BDE88901B3
:10599000BDE80048B619524141EB0101A3F10103F2
:1059A000704780807F7E7D7C7B7A7978777676758C
:1059B0007473727171706F6E6E6D6C6C6B6A6A6904
:1059C0006868676666656464636362616160605F9E
:1059D0005F5E5E5D5D5C5C5B5B5A5A595958585717
:1059E000575656555555545453535252525151507F
:1059F00050504F4F4F4E4E4D4D4D4C4C4C4B4B4BD2
:105A00004A4A4A4949494848484747474746464617
:105A10004545454444444443434343424242424152
:105A20004141002B26D4770021D01CB54FEA37071F
:105A300003B44FF010004FF010014FF000000FBC06
:105A4000BDE810400BF1010BBBF1010F08BF5FEA8D
:105A5000170722BF12F1010211F101014FF00041BD
:105A600043F1000300F0004043EA00007047F9D31F
:105A70005708DAE746EA064613F1400F4FEA1646A2
:105A80001FDD13F1200FDFBF16430A46002120332C
:105A90005B42C8D0C3F1200746EA064602FA07F780
:105AA0004FEA164646EA0706C3F1200722FA03F238
:105AB00001FA07F721FA03F14FF0000342EA070267
:105AC000B1E746EA020646EA06464FEA164646EAC5
:105AD0000106BCBF46EA0646360C4FF000034FF005
